:0200000058297D
:020006000800F0
:10000800033083120313FD00FD0B082800000000D5
:020018000800DE
:10001A00023083120313FC00C830FD00FD0B1328C5
:06002A00FC0B1328080086
:1000300083120313B31B1E2886111F288615331B3A
:100040002328061124280615B31A282886102928E3
:100050008614331A2D2806102E2806142518322847
:10006000061633280612861603208612B3193A287C
:1000700086113B28861533193F280611402806159E
:10008000B3184428861045288614331849280610CA
:100090004A28061425184E2806164F2806128616DA
:1000A00003208612251C56280D20572804200800FE
:1000B0008312031325103208B300182025140800FA
:0E00C000831203132D088A002C08820008000A
:1000CE007928803083120313AE008C28C030AE0026
:1000DE008C289430AE008C28D430AE008C28803022
:1000EE00AE008C28831203132E08013A03196828D8
:1000FE002E08023A03196D282E08033A03197028A8
:10010E002E08043A0319732876282F03F0002E08C0
:10011E00F0077008AE0025147008B30018202510E3
:0A012E003008B30018202514080063
:10013800831203131A08F100981CA4281812181621
:060148007108F000080040
:0E014E000030831203138C1A0130F0000800F9
:10015C0083160313861206120610861006118611DA
:10016C0083128612061286110611861006100D20B7
:10017C000D200D20861406148616032086120D20E1
:10018C008616032086120D208616032086120D205B
:10019C0006108616032086120D2086160320861262
:1001AC00861086158616032086120D2086110614DD
:1001BC0086160320861206108616032086120D2042
:1001CC0086160320861206148616032086120D202E
:1001DC00061086160320861286150615861406143C
:0C01EC008616032086120D202514080042
:1001F8008316031398169030831298008316871776
:10020800071383128C1E0B291A08F0000529080011
:100218001E29803083120313AE003129C030AE008E
:1002280031299430AE003129D430AE0031298030E4
:10023800AE003129831203132E08013A03190D2940
:100248002E08023A031912292E08033A0319152910
:100258002E08043A031918291B292F03F0002E0829
:10026800F0077008AE007008B30018202510B1011F
:10027800310830078400000803194A29310830077B
:1002880084000008B2005820B10A3C29251408004F
:1002980060208A110A128000840AAC0A0319AD0A88
:0802A800F003031D4C290800BE
:1002B000543083120313A0006930A1006D30A200F6
:1002C0006530A300A401AE200C30B300182001302B
:1002D000AE000130AF002030B0000C210630831694
:1002E00099001815FC206230FC006530FD00FD0B04
:1002F0007729FC0B772900000000A7207008013A3D
:10030000031D85299C207008A6000230AE00013034
:10031000AF002608B0006720A7207008013A031D2F
:1003200094299C207008A7000230AE000230AF0074
:100330002708B00067200230AE000330AF003A302B
:10034000B0006720A7207008013A031DAA299C204D
:100350007008A8000230AE000430AF002808B000DA
:100360006720A7207008013A031DB9299C20700856
:10037000A9000230AE000530AF002908B0006720A8
:100380000230AE000630AF003A30B0006720A72040
:100390007008013A031DCF299C207008AA00023082
:1003A000AE000730AF002A08B0006720A720700811
:1003B000013A031DDE299C207008AB000230AE001C
:0E03C0000830AF002B08B00067207D29E62929
:02400E004A2F37
:00000001FF
