S00F00005254435F5350492E73726563E1
S11300000C942A000C9447000C9447000C9447006D
S11300100C9447000C9447000C9447000C94470040
S11300200C9447000C9447000C9447000C94470030
S11300300C9447000C9447000C9447000C94470020
S11300400C9447000C9447000C9447000C94470010
S11300500C94470011241FBECFE5D8E0DEBFCDBF0E
S113006010E0A0E6B0E0E6E7F7E002C005900D92EC
S1130070A437B107D9F720E0A4E7B0E001C01D928E
S1130080AD37B207E1F70E9428020C94B9030C942F
S113009000000E942C018CE00E940A0180E690E09E
S11300A00E9487012FE38DE093E02150804090402F
S11300B0E1F700C0000081E00E940A018FE690E0B1
S11300C00E9487010E94B60140E065E181E20E943E
S11300D0CA0160E875E280E090E00E946C032FE5BD
S11300E08AEE90E0215080409040E1F700C000008B
S11300F008950F931F93CF93DF9361E082E00E94F2
S1130100940146E750E065E770E084E790E00E94E0
S1130110E70104E710E0F80180810E9414028AE3F9
S11301200E94E800F80181810E9414028AE30E947F
S1130130E800F80182810E941402F8019081892F5D
S113014082958F70805DC7E7D0E088839F70905D53
S113015099839181292F22952F70205D2A839F7086
S1130160905D9B839281292F22952F70205D2C8393
S11301709F70905D9D830E94930389810E949303E5
S11301808A810E9493038B810E9493038C810E9435
S113019093038D810E949303DF91CF911F910F915F
S11301A0089541E060E082E40E949D028FE99FE0AF
S11301B00197F1F700C0000040E060E082E40E9493
S11301C09D028FE99FE00197F1F700C000000895B8
S11301D0CF93C82F682F62956F7081E40E940D033E
S11301E041E062E082E40E949D020E94D1006C2FF3
S11301F081E40E940D0341E062E082E40E949D02DA
S11302000E94D1008FEC97E00197F1F700C0000045
S1130210CF910895CF93C82F682F62956F7081E4B2
S11302200E940D0340E062E082E40E949D020E946D
S1130230D1006C2F81E40E940D0340E062E081E470
S11302400E949D020E94D1008FEC97E00197F1F784
S113025000C00000CF910895CF93DF932FEF81EE7C
S113026094E0215080409040E1F700C00000C4E0D9
S1130270D0E006C041E06C2F81E40E942D0221965B
S1130280C830D105BCF341E060E082E40E942D0255
S113029041E061E082E40E942D0241E062E082E4F8
S11302A00E942D0240E061E082E40E949D0282E00F
S11302B00E940A018FE19EE40197F1F700C000005B
S11302C088E20E940A018FEC97E00197F1F700C0E1
S11302D000008EE00E940A018FEC97E00197F1F78D
S11302E000C0000081E00E940A018FE19EE40197B2
S11302F0F1F700C0000086E00E940A018FEC97E04D
S11303000197F1F700C00000DF91CF910895CF93DA
S1130310DF93EC0103C00E94E800219688818111DB
S1130320FACFDF91CF9108959FEF980F923070F438
S1130330613170F4662371F0813019F48FE7860F10
S11303400CC0823049F48FEB860F07C080E805C0EB
S113035080E803C080E801C080E00E940A018FECBD
S113036097E00197F1F700C00000089560EA76E88D
S113037081E090E00E9436030E944A0380ED0E94CF
S1130380500387E00E94500380E00E9450030E94C3
S1130390620308951F93CF93DF93C82FD62F142F92
S11303A00E944A0380ED0E94500380E00E945003A3
S11303B0812F0E9450038D2F0E9450038C2F0E9486
S11303C050030E946203DF91CF911F910895EF9231
S11303D0FF920F931F93CF93DF93EC018B017A016C
S11303E00E944A0380ED0E94500380E00E94500363
S11303F00E944A0381ED0E94500381E00E9457034A
S1130400F701808381E00E945703F801808380E034
S11304100E94570388830E946203DF91CF911F914A
S11304200F91FF90EF900895CF93C82F82958F700E
S1130430805D0E94E80089EF90E00197F1F700C029
S113044000008C2F8F70805D0E94E800CF9108958A
S11304500E9449000E947900FDCF823419F118F4FA
S1130460813439F008958334B1F1843409F44CC0F3
S11304700895413059F42AB381E090E002C0880F16
S1130480991F6A95E2F7822B8ABB08952AB381E00B
S113049090E002C0880F991F6A95E2F78095822345
S11304A08ABB0895413059F427B381E090E002C03B
S11304B0880F991F6A95E2F7822B87BB089527B3AB
S11304C081E090E002C0880F991F6A95E2F7809559
S11304D0822387BB0895413059F424B381E090E02E
S11304E002C0880F991F6A95E2F7822B84BB089596
S11304F024B381E090E002C0880F991F6A95E2F767
S11305008095822384BB0895413059F421B381E05E
S113051090E002C0880F991F6A95E2F7822B81BB95
S1130520089521B381E090E002C0880F991F6A9575
S1130530E2F78095822381BB0895823419F118F47F
S1130540813439F008958334B1F1843409F44CC012
S11305500895413059F42BB381E090E002C0880F34
S1130560991F6A95E2F7822B8BBB08952BB381E028
S113057090E002C0880F991F6A95E2F78095822364
S11305808BBB0895413059F428B381E090E002C058
S1130590880F991F6A95E2F7822B88BB089528B3C8
S11305A081E090E002C0880F991F6A95E2F7809578
S11305B0822388BB0895413059F425B381E090E04B
S11305C002C0880F991F6A95E2F7822B85BB0895B4
S11305D025B381E090E002C0880F991F6A95E2F785
S11305E08095822385BB0895413059F422B381E07C
S11305F090E002C0880F991F6A95E2F7822B82BBB4
S1130600089522B381E090E002C0880F991F6A9593
S1130610E2F78095822382BB08956295607F8234DD
S113062081F018F4813431F00895833489F08434EE
S1130630B1F008958BB38F708BBB8BB3682B6BBBFE
S1130640089588B38F7088BB88B3682B68BB0895FE
S113065085B38F7085BB85B3682B65BB089582B362
S11306608F7082BB82B3682B62BB08959B01AC017F
S113067060E472E48FE090E00E949703DA01C9011C
S11306804097A109B109B695A7959795879580B923
S113069011B8089584EA86BF06B607FEFDCF089513
S11306A083B984E886BF06B607FEFDCF089520E42B
S11306B0829FC0011124846886BF06B607FEFDCF61
S11306C083B1089584E986BF80E090E001C001967B
S11306D084369105E4F30895DC01CB01880F991F5A
S11306E0AA1FBB1F880F991FAA1FBB1F9C01AD0126
S11306F0220F331F441F551F220F331F441F551F42
S113070060E072E18AE790E00E949703215031098A
S113071030BD29B98AB188608AB98AB180618AB941
S113072086E880BD08955D9BFECF8CB90895A1E253
S11307301A2EAA1BBB1BFD010DC0AA1FBB1FEE1F57
S1130740FF1FA217B307E407F50720F0A21BB30BA2
S1130750E40BF50B661F771F881F991F1A9469F71E
S113076060957095809590959B01AC01BD01CF017A
S10907700895F894FFCF88
S113077657656C636F6D6520546F20525443005463
S1070786696D650030
S9030000FC
